:020000040000FA
:100000000C9459000C9481000C9481000C94810094
:100010000C9481000C9481000C9481000C9481005C
:100020000C9481000C9481000C9481000C9481004C
:100030000C9481000C9481000C9481000C9481003C
:100040000C9466050C9481000C94D6050C94B005B4
:100050000C9481000C9481000C9481000C9481001C
:100060000C9408060C948100000000002500280074
:100070002B00040404040404040402020202020229
:10008000030303030303010204081020408001025C
:1000900004081020010204081020000000080002DB
:1000A0000100000304070000000000000000270713
:1000B000480A11241FBECFEFD8E0DEBFCDBF22E03B
:1000C000ACE5B1E001C01D92AC3FB207E1F711E031
:1000D000A0E0B1E0E2E7F9E102C005900D92AC3595
:1000E000B107D9F710E0C8E5D0E004C02197FE01C0
:1000F0000E94A50AC735D107C9F70E94FA070C94D8
:10010000AC0C0C94000090E0FC01E656FF4F2491EB
:10011000FC01EA57FF4F3491FC01EE58FF4FE49188
:10012000EE23C9F0222339F0233001F1A8F4213065
:1001300019F1223029F1F0E0EE0FFF1FE859FF4FCF
:10014000A591B4918FB7F894EC91611126C03095C8
:100150003E233C938FBF08952730A9F02830C9F083
:10016000243049F7809180008F7D03C0809180000A
:100170008F7780938000DFCF84B58F7784BDDBCF0E
:1001800084B58F7DFBCF8091B0008F778093B000D6
:10019000D2CF8091B0008F7DF9CF3E2BDACF3FB721
:1001A000F89480911B0290911C02A0911D02B091C5
:1001B0001E0226B5A89B05C02F3F19F00196A11D70
:1001C000B11D3FBFBA2FA92F982F8827BC01CD01A1
:1001D000620F711D811D911D42E0660F771F881F00
:1001E000991F4A95D1F708958F929F92AF92BF922F
:1001F000CF92DF92EF92FF924B015C010E94CF0001
:100200006B017C010E94CF006C197D098E099F094A
:10021000683E734081059105A8F321E0821A910898
:10022000A108B10888EEC80E83E0D81EE11CF11CBD
:1002300081149104A104B10429F7FF90EF90DF909D
:10024000CF90BF90AF909F908F9008952FB7F89464
:1002500060911702709118028091190290911A0210
:100260002FBF089508950895AF92BF92CF92DF9265
:10027000EF92FF920F931F93CF93DF936C017B015B
:100280008B01040F151FEB015E01AE18BF08C017EC
:10029000D10759F06991D601ED91FC910190F0815F
:1002A000E02DC6010995892B79F7C501DF91CF9122
:1002B0001F910F91FF90EF90DF90CF90BF90AF9084
:1002C0000895FC01538D448D252F30E0842F90E05C
:1002D000821B930B541710F0CF9608950197089541
:1002E000FC01918D828D981761F0A28DAE0FBF2F0A
:1002F000B11D5D968C91928D9F5F9F73928F90E060
:1003000008958FEF9FEF08950F931F930E9426018A
:1003100060932702709328028093290290932A0207
:100320008FE192E00E94700197FF1DC00E9426019C
:1003300000912702109128022091290230912A026F
:10034000601B710B820B930B00912302109124020E
:1003500020912502309126026017710782079307CA
:10036000F8F28FEF9FEF1F910F910895FC01918D8F
:10037000828D981731F0828DE80FF11D858D90E008
:1003800008958FEF9FEF0895FC01918D228D892FA5
:1003900090E0805C9F4F821B91098F73992708958D
:1003A0008FE192E00E94C40121E0892B09F420E052
:1003B000822F089580E090E0892B29F00E94D001DF
:1003C00081110C9400000895FC01A48DA80FB92F91
:1003D000B11DA35ABF4F2C91848D90E001968F736D
:1003E0009927848FA689B7892C93A089B1898C918C
:1003F000837080648C93938D848D981306C00288DB
:10040000F389E02D80818F7D80830895EF92FF92A4
:100410000F931F93CF93DF93EC0181E0888F9B8D27
:100420008C8D98131AC0E889F989808185FF15C0E1
:100430009FB7F894EE89FF896083E889F989808104
:100440008370806480839FBF81E090E0DF91CF91D3
:100450001F910F91FF90EF900895F62E0B8D10E0F5
:100460000F5F1F4F0F731127E02E8C8D8E110CC064
:100470000FB607FCFACFE889F989808185FFF5CFAF
:10048000CE010E94E401F1CFEB8DEC0FFD2FF11DA9
:10049000E35AFF4FF0829FB7F8940B8FEA89FB89EC
:1004A00080818062CFCFCF93DF93EC01888D88234A
:1004B000B9F0AA89BB89E889F9898C9185FD03C0C7
:1004C000808186FD0DC00FB607FCF7CF8C9185FFAC
:1004D000F2CF808185FFEDCFCE010E94E401E9CF0C
:1004E000DF91CF9108952091C401260F3327331F48
:1004F00021323105ECF42091E801FC0190E080E02C
:10050000243069F082E00895A091C4012191AC01EA
:100510004C555E4FA40FB52FB11D2C930196861735
:1005200098F38091C401680F6093C40180E008953E
:1005300081E008951092E80181E08093EA01109231
:10054000E90161E082E10E94830061E083E10E94B1
:100550008300E9EBF0E080818E7F808380818D7F56
:10056000808388E48093B80085E48093BC0008957C
:10057000CF93DF9391E09093A3018823B9F0C091CA
:10058000B800D091BA008091BC008A7B8093BC00F7
:1005900060E082E10E94830060E083E10E948300CA
:1005A0000E949A02D093BA00C093B800DF91CF9115
:1005B00008950895E091150280911402E81730F42F
:1005C000F0E0E258FE4F808190E008958FEF9FEFBA
:1005D000089590911502809114022FEF3FEF981724
:1005E00048F4E92FF0E0E258FE4F208130E09F5FB1
:1005F00090931502C90108958091140290911502FB
:10060000891B990B0895CF92DF92EF92FF920F937F
:100610001F93CF93DF937C01CB018A0120917D0151
:10062000222389F0EB016B01C40ED51ECC15DD052C
:1006300069F06991D701ED91FC910190F081E02D75
:10064000C7010995F3CF642F0E947302C801DF919F
:10065000CF911F910F91FF90EF90DF90CF90089571
:10066000CF93DF931F92CDB7DEB7698320917D01D1
:100670002223F9F020911202203258F021E030E0DC
:10068000FC013383228390E080E00F90DF91CF91D3
:10069000089580911302E82FF0E0E35AFE4F99810C
:1006A00090838F5F809313028093120281E090E029
:1006B000ECCF61E0CE0101960E947302F7CFCF929A
:1006C000DF92EF92FF920F931F93CF93DF93FC0182
:1006D000C48121E020937D01C0935C01109213023C
:1006E000109212028485682B8CEB92E00E943003FA
:1006F000D0911202D13208F092C00E94CF006B015B
:100700007C018091E801811165C082E08093E8015D
:1007100081E08093EA018FEF8093E70110920C0251
:10072000D0930B02ADE5B1E0EBEEF1E080E0D81341
:1007300085C010920D0280910D02CC0FC82BC09382
:100740000D028091E901813009F07CC01092E9012D
:100750000E94CF006B017C0180910D028093BB0051
:1007600080919F019091A001A091A101B091A2015F
:10077000892B8A2B8B2B99F00E94CF0000919F012F
:100780001091A0012091A1013091A2016C197D0965
:100790008E099F090617170728073907E0F180918E
:1007A000BC0083FDD9CF85EC8093BC000E94CF00B4
:1007B0006B017C018091E801823009F445C0809191
:1007C000E7018F3F61F18091E701803241F1809133
:1007D000E70125C080919F019091A001A091A10106
:1007E000B091A201892B8A2B8B2B09F48ACF0E940E
:1007F000CF0000919F011091A0012091A1013091A3
:10080000A2016C197D098E099F0906171707280791
:10081000390708F076CF80919E010E94B8021092AD
:1008200013021092120210927D01DF91CF911F915D
:100830000F91FF90EF90DF90CF9008959D9191934D
:100840008F5F75CF85EEB0CF80919F019091A00111
:10085000A091A101B091A201892B8A2B8B2B09F4C5
:10086000A9CF0E94CF0000919F011091A00120917B
:10087000A1013091A2016C197D098E099F0906170B
:1008800017072807390708F095CFC5CF089590E0DE
:1008900080E008950F931F93CF938C01C62F0E9481
:1008A0005F036C2F6460C8010E945F036C2F6B7F35
:1008B000C8010E945F0383EC90E00197F1F7CF91AC
:1008C0001F910F9108950F931F93CF93DF938C0186
:1008D000D62FC42F607F642B0E944A0480E1D89FEA
:1008E000B00111246C2BC801DF91CF911F910F91A2
:1008F0000C944A04CF93DF93CDB7DEB728970FB699
:10090000F894DEBF0FBECDBF98E0E6E0F1E0DE0177
:10091000119601900D929A95E1F79091F302981734
:1009200010F48FEF890F90E0880F991F21E030E0DD
:100930002C0F3D1F820F931FFC016081606840E017
:100940008BEE92E028960FB6F894DEBF0FBECDBFB7
:10095000DF91CF910C94630441E00E94630481E035
:1009600090E008952091D6023091D70221503109AC
:100970002817390708F4C9016091D2027091D30297
:10098000680F791F40E150E088ED92E00E949D0CD5
:100990001092E80208950F931F93CF93DF93EC0119
:1009A00088819981009759F02A813B812617370762
:1009B00030F081E0DF91CF911F910F9108958B016D
:1009C0006F5F7F4F0E94D00B009759F09983888307
:1009D0001B830A832C813D81232B59F7FC01108254
:1009E000E8CF80E0E7CFCF93DF93EC018881998156
:1009F000009711F00E94470B198218821D821C82F9
:100A00001B821A82DF91CF910895EF92FF920F938C
:100A10001F93CF93DF93EC017B018A01BA010E94FF
:100A2000CB0481110BC0CE010E94F304CE01DF91F3
:100A3000CF911F910F91FF90EF9008951D830C832C
:100A4000B701888199810E94960CF0CFFC018081CA
:100A50009181009711F00C94470B089585ED8093D8
:100A6000BC0080919F019091A001A091A101B09143
:100A7000A2010796A11DB11D23E0B695A7959795F4
:100A800087952A95D1F72091BC0024FD03C01092D0
:100A9000E801089540919F015091A0016091A1014A
:100AA0007091A201452B462B472B69F30097A105B6
:100AB000B10541F02AE22A95F1F700C00197A1099A
:100AC000B109E1CF80919E010C94B8021F920F9260
:100AD0000FB60F9211242F933F938F939F93AF9351
:100AE000BF938091170290911802A0911902B091C2
:100AF0001A023091160223E0230F2D3758F5019684
:100B0000A11DB11D20931602809317029093180225
:100B1000A0931902B0931A0280911B0290911C02BB
:100B2000A0911D02B0911E020196A11DB11D8093DE
:100B30001B0290931C02A0931D02B0931E02BF9152
:100B4000AF919F918F913F912F910F900FBE0F907A
:100B50001F90189526E8230F0296A11DB11DD2CF34
:100B60001F920F920FB60F9211242F933F934F9322
:100B70005F936F937F938F939F93AF93BF93EF9305
:100B8000FF938FE192E00E94E401FF91EF91BF910A
:100B9000AF919F918F917F916F915F914F913F9115
:100BA0002F910F900FBE0F901F9018951F920F92CC
:100BB0000FB60F9211242F938F939F93EF93FF9370
:100BC000E0912F02F09130028081E0913502F091A6
:100BD000360282FD1BC09081809138028F5F8F7337
:100BE00020913902821741F0E0913802F0E0E15E95
:100BF000FD4F958F80933802FF91EF919F918F91D8
:100C00002F910F900FBE0F901F9018958081F4CFF9
:100C10001F920F920FB60F9211242F933F934F9371
:100C20005F936F937F938F939F93AF93BF93EF9354
:100C3000FF938091B900887F803609F44AC0F0F5AF
:100C4000883209F4A7C018F5803109F49BC0B8F4C4
:100C5000882309F4F9C0883009F494C0FF91EF911A
:100C6000BF91AF919F918F917F916F915F914F91C4
:100C70003F912F910F900FBE0F901F9018958831C4
:100C800009F488C0803251F78093E70114C08034A2
:100C900009F49DC040F48033B9F38833F9F68093AA
:100CA000E70185ECB0C0803509F485C0883509F4CA
:100CB00096C0883499F60E942E05D0CF883909F461
:100CC0008CC038F5883729F050F4883611F0803719
:100CD00029F683E08093E8011092E60157C0883836
:100CE00009F47BC0803919F0803809F0B7CF8091C2
:100CF000E601803208F071C0E091E60181E08E0FDC
:100D00008093E6018091BB00F0E0EA53FE4F8083C0
:100D10003DC0803B39F0E0F4803A09F479C0883A6C
:100D200009F09CCF84E08093E8011092C5011092F5
:100D3000C401E0911002F091110209958091C40163
:100D400081110FC081E08093C4011092A40109C0F9
:100D5000803C09F4A6CF883C09F4A3CF883B09F076
:100D60007DCFE091C50181E08E0F8093C501F0E059
:100D7000EC55FE4F80818093BB009091C50180911E
:100D8000C40129C080910D028093BB0085EC809343
:100D9000BC0064CF90910C0280910B02981758F51B
:100DA000E0910C0281E08E0F80930C02F0E0E5519F
:100DB000FE4F8081E9CFE0910C0281E08E0F80939D
:100DC0000C028091BB00F0E0E551FE4F80839091D2
:100DD0000C0280910B029817C8F285E8D8CFE091F9
:100DE0000C0281E08E0F80930C028091BB00F0E03A
:100DF000E551FE4F80838091EA0181115CCF81E053
:100E00008093E90184EA8093BC001092E80126CF28
:100E100085EC8093BC001092E8018091E60180325D
:100E200030F4E091E601F0E0EA53FE4F1082609169
:100E3000E60170E0E0910E02F0910F0286EC91E085
:100E400009951092E6010ACF1092E70134CFCF93B3
:100E5000DF9300D000D000D0CDB7DEB710922202D1
:100E60001092210288EE93E0A0E0B0E0809323028C
:100E700090932402A0932502B093260222E131E050
:100E80003093200220931F0225EC30E030932C0297
:100E900020932B0224EC30E030932E0220932D027D
:100EA00020EC30E03093300220932F0221EC30E030
:100EB000309332022093310222EC30E0309334023E
:100EC0002093330226EC30E0309336022093350233
:100ED000109238021092390210923A0210923B029C
:100EE0001092BF021092BE028093C0029093C10282
:100EF000A093C202B093C30284E291E09093BD023A
:100F00008093BC021092EE021092ED0286E391E013
:100F10009093EC028093EB021092F40287E28093AC
:100F2000EF0280E18093F50282E08093F602109256
:100F3000F7021A8219821C821B821E821D824CE1DA
:100F400050E06EE371E0CE0101960E94050510921B
:100F5000C9021092C8021092CB021092CA021092DB
:100F6000CE021092CF021092D0021092D1021092B3
:100F7000D3021092D2021092D5021092D402109293
:100F8000D7021092D60250E040E06AE571E082EDAF
:100F900092E00E94050581E08093E9021092EA0246
:100FA00069817A816115710501F14D815E8182ED62
:100FB00092E00E94050590E080E00E94B20481E08A
:100FC0008093EA0288E893E19093CD028093CC026B
:100FD000CE0101960E94260526960FB6F894DEBF34
:100FE0000FBECDBFDF91CF91089582ED92E00E94B8
:100FF000F304E1CFCF93DF93CDB7DEB728970FB6D9
:10100000F894DEBF0FBECDBF789484B5826084BDF6
:1010100084B5816084BD85B5826085BD85B58160FC
:1010200085BD80916E00816080936E00109281007A
:101030008091810082608093810080918100816035
:1010400080938100809180008160809380008091F6
:10105000B10084608093B1008091B0008160809382
:10106000B00080917A00846080937A0080917A0049
:10107000826080937A0080917A00816080937A0008
:1010800080917A00806880937A001092C10010925B
:1010900015021092140210921302109212020E9472
:1010A0009A0282E391E0909311028093100283E30D
:1010B00091E090930F0280930E021092F0028091C3
:1010C000F602823018F098E09093F0028093F302D9
:1010D00062E370E080E090E00E94F4006091F7022B
:1010E0008BEE92E00E945F0368EE73E080E090E098
:1010F0000E94F40060E38BEE92E00E944A040BE44D
:1011000016E4C8010197F1F760E38BEE92E00E94CC
:101110004A04C8010197F1F760E38BEE92E00E9468
:101120004A0483E592E00197F1F760E28BEE92E0EA
:101130000E944A046091F002606240E08BEE92E00F
:101140000E94630484E08093F10240E06CE08BEE47
:1011500092E00E94630440E061E08BEE92E00E9426
:1011600063048BE39FE10197F1F78091F4028823F8
:1011700019F080E00E947A0412E01093F20240E03D
:1011800066E08BEE92E00E94630440E062E08BEE4A
:1011900092E00E9463048BE39FE10197F1F788E0FE
:1011A0008093F70260E08BEE92E00E945F03E09193
:1011B0002F02F09130021083E0912B02F0912C026B
:1011C0001082E0912D02F0912E028FEC808310921C
:1011D0003702E0913302F091340286E08083E0919F
:1011E0003102F0913202808180618083E09131028E
:1011F000F0913202808188608083E0913102F09129
:101200003202808180688083E0913102F091320265
:1012100080818F7D808388ED682E82E0782E90E03B
:10122000A92E90E0B92E552453948FE192E00E94AC
:10123000C401892B09F44DC01A8219821C821B82B9
:101240001E821D8250E040E06AE571E0CE01019609
:101250000E9405050E94840197FD1BC08F8318869C
:101260000D811E810F5F1F4FB801CE0101960E94B4
:10127000CB04882379F329813A818D819E81BE0137
:10128000695F7F4F820F931F0E94960C1E830D8310
:10129000E1CF69817A816115710509F4A6C04D819C
:1012A0005E8182ED92E00E940505C090D202D0904E
:1012B000D302C114D10449F00091D6021091D70293
:1012C00076010115110509F096C0CE0101960E9424
:1012D000260580E00E947A048091EA02882309F4BE
:1012E000C6C08091D6029091D702419708F4BFC042
:1012F000A091CA02B091CB022EEE32E00E949E0A6B
:101300002091CC023091CD028901330F220B330B97
:101310006B017C01C00ED11EE21EF31E0E9426014D
:101320000091CE021091CF022091D0023091D102D3
:10133000601B710B820B930BC616D706E806F906E5
:1013400008F095C08091C8029091C9020E94B20431
:101350008091CA029091CB0201969093CB02809328
:10136000CA022091C8023091C9028091D6029091A0
:10137000D70240972817390709F082C01092E90276
:101380001092CB021092CA020E9426016093CE02F4
:101390007093CF028093D0029093D1028091C802C3
:1013A0009091C9022091E902222309F46FC00196AD
:1013B0009093C9028093C802F30101900020E9F7DD
:1013C000AF01495D524068ED72E08BEE92E00E9401
:1013D0003401A114B10409F428CF0E94D00188235C
:1013E00009F423CF0E94000020CF82ED92E00E94FA
:1013F000F3045BCF740147018FEF881A980AF70155
:101400008081082E000C990B0E944C0A892B91F7C1
:10141000015011090C0D1D1DF8018081082E000CD2
:10142000990B0E944C0A892B31F00E151F0518F0FC
:1014300001501109F1CF0F5F1F4FA8014E195F092D
:101440005093D7024093D602CE14DF0420F4B701A4
:10145000C6010E948D0CE091D202F091D3028091DE
:10146000D6029091D702E80FF91F10822ECF8091FB
:10147000EA028111A1CF90E080E00E94B2049CCFEB
:10148000232B09F08BCF5092E9027ACF019790CFAE
:1014900082ED92E00C94260591110C94550A80324D
:1014A00019F089508550C8F708959927882708951D
:1014B0002F923F924F925F926F927F928F929F9264
:1014C000AF92BF92CF92DF92EF92FF920F931F9352
:1014D000CF93DF93CDB7DEB7CA1BDB0B0FB6F89403
:1014E000DEBF0FBECDBF09942A88398848885F8443
:1014F0006E847D848C849B84AA84B984C884DF80B4
:10150000EE80FD800C811B81AA81B981CE0FD11D97
:101510000FB6F894DEBF0FBECDBFED010895A29FB8
:10152000B001B39FC001A39F700D811D1124911DB7
:10153000B29F700D811D1124911D08950E948F0A84
:10154000B7FF0895821B930B0895EE0FFF1F0590C0
:10155000F491E02D09940F931F93CF93DF93823082
:10156000910510F482E090E0E091FA02F091FB0224
:1015700030E020E0B0E0A0E0309799F4211531058B
:1015800009F44AC0281B390B24303105D8F58A816B
:101590009B816115710589F1FB0193838283FE01B3
:1015A00011C0408151810281138148175907E0F031
:1015B0004817590799F4109761F012960C931297F7
:1015C00013961C933296CF01DF91CF911F910F910B
:1015D00008950093FA021093FB02F4CF2115310510
:1015E00051F04217530738F0A901DB019A01BD0100
:1015F000DF01F801C1CFEF01F9CF9093FB02809397
:10160000FA02CDCFFE01E20FF31F81939193225096
:10161000310939832883D7CF2091F8023091F9021C
:10162000232B41F420910201309103013093F90200
:101630002093F8022091000130910101211531051C
:1016400041F42DB73EB74091040150910501241B90
:10165000350BE091F802F091F902E217F307A0F4DC
:101660002E1B3F0B2817390778F0AC014E5F5F4FF8
:101670002417350748F04E0F5F1F5093F90240932F
:10168000F802819391939FCFF0E0E0E09CCFCF935D
:10169000DF930097E9F0FC01329713821282A09148
:1016A000FA02B091FB02ED0130E020E01097A1F4C6
:1016B00020813181820F931F2091F8023091F9022D
:1016C0002817390709F061C0F093F902E093F80296
:1016D000DF91CF910895EA01CE17DF07E8F54A813F
:1016E0005B819E0141155105B1F7E901FB83EA8356
:1016F00049915991C40FD51FEC17FD0761F4808102
:1017000091810296840F951FE901998388838281D4
:1017100093819B838A83F0E0E0E012968D919C9107
:1017200013970097B9F52D913C911197CD01029631
:10173000820F931F2091F8023091F9022817390780
:1017400039F6309751F51092FB021092FA02B093DD
:10175000F902A093F802BCCFD383C28340815181A8
:10176000840F951FC817D90761F44E5F5F4F8881BA
:101770009981480F591F518340838A819B819383AC
:1017800082832115310509F0B0CFF093FB02E0937D
:10179000FA029ECFFD01DC01C0CF13821282D7CFA7
:1017A000B0E0A0E0E6EDFBE00C945A0A8C01009753
:1017B00051F4CB010E94AB0A8C01C801CDB7DEB752
:1017C000E0E10C94760AFC01E60FF71F9C01225021
:1017D0003109E217F30708F49DC0D901CD91DC91DE
:1017E0001197C617D70798F0C530D10530F3CE0151
:1017F00004978617970708F3C61BD70B2297C19348
:10180000D1936D937C93CF010E94470BD6CF5B01A0
:10181000AC1ABD0A4C018C0E9D1EA091FA02B0912B
:10182000FB02512C412CF12CE12C109731F58091C9
:10183000F8029091F9028815990509F05CC04616E6
:10184000570608F058C0809100019091010100975F
:1018500041F48DB79EB74091040150910501841B5E
:10186000950BE817F90708F055C0F093F902E093DB
:10187000F802F90171836083A0CF8D919C9111973B
:1018800012966C90129713967C901397A815B90531
:1018900059F56C0142E0C40ED11CCA14DB0420F1DE
:1018A000AC014A195B09DA011296159780F0628241
:1018B000738251834083D9016D937C93E114F104C9
:1018C00071F0D7011396FC93EE93129776CF229680
:1018D0008C0F9D1FF90191838083F301EFCFF0936B
:1018E000FB02E093FA0269CF4816590608F42C016E
:1018F0007D01D3019ACFCB010E94AB0A7C010097F6
:1019000049F0AE01B8010E948D0CC8010E94470B3E
:10191000870153CF10E000E050CFFB01DC0102C093
:1019200001900D9241505040D8F70895FB01DC0121
:1019300001900D920020E1F70895FB01DC01415078
:10194000504048F001900D920020C9F701C01D924F
:1019500041505040E0F7089510E0C8E5D0E004C0E1
:10196000FE010E94A50A2196C935D107C9F7F8944E
:10197000FFCF0000FC028000000040001400540073
:10198000000000000602340161015302C40170012D
:10199000B60100000000300303034704D902FC0233
:1019A000E902DA0200000000AC04340147044604F6
:1019B00048656C6C6F2C20576F726C6421205468E2
:0E19C0006973206973206120746573740000E0
:107E0000112484B714BE81FFF0D085E080938100F7
:107E100082E08093C00088E18093C10086E0809377
:107E2000C20080E18093C4008EE0C9D0259A86E02C
:107E300020E33CEF91E0309385002093840096BBD3
:107E4000B09BFECF1D9AA8958150A9F7CC24DD24C4
:107E500088248394B5E0AB2EA1E19A2EF3E0BF2EE7
:107E6000A2D0813461F49FD0082FAFD0023811F036
:107E7000013811F484E001C083E08DD089C08234E0
:107E800011F484E103C0853419F485E0A6D080C0E4
:107E9000853579F488D0E82EFF2485D0082F10E0AE
:107EA000102F00270E291F29000F111F8ED06801E7
:107EB0006FC0863521F484E090D080E0DECF843638
:107EC00009F040C070D06FD0082F6DD080E0C81688
:107ED00080E7D80618F4F601B7BEE895C0E0D1E017
:107EE00062D089930C17E1F7F0E0CF16F0E7DF06D8
:107EF00018F0F601B7BEE89568D007B600FCFDCFD4
:107F0000A601A0E0B1E02C9130E011968C91119780
:107F100090E0982F8827822B932B1296FA010C0160
:107F200087BEE89511244E5F5F4FF1E0A038BF0790
:107F300051F7F601A7BEE89507B600FCFDCF97BE46
:107F4000E89526C08437B1F42ED02DD0F82E2BD052
:107F50003CD0F601EF2C8F010F5F1F4F84911BD097
:107F6000EA94F801C1F70894C11CD11CFA94CF0C13
:107F7000D11C0EC0853739F428D08EE10CD085E9AC
:107F80000AD08FE07ACF813511F488E018D01DD067
:107F900080E101D065CF982F8091C00085FFFCCF94
:107FA0009093C60008958091C00087FFFCCF809118
:107FB000C00084FD01C0A8958091C6000895E0E648
:107FC000F0E098E1908380830895EDDF803219F02E
:107FD00088E0F5DFFFCF84E1DECF1F93182FE3DFCA
:107FE0001150E9F7F2DF1F91089580E0E8DFEE27F6
:047FF000FF270994CA
:027FFE00040479
:00000001FF
